{
	"data": {
		"bytecode": {
			"linkReferences": {},
			"object": "60f161004c600b8282823980515f1a6073146040577f4e487b71000000000000000000000000000000000000000000000000000000005f525f60045260245ffd5b305f52607381538281f3fe7300000000000000000000000000000000000000003014608060405260043610603c575f3560e01c80631ccff3f5146040578063b1c0c80a14605a575b5f5ffd5b60466074565b6040516051919060a4565b60405180910390f35b6060607a565b604051606b919060a4565b60405180910390f35b61271081565b6101f481565b5f6bffffffffffffffffffffffff82169050919050565b609e816080565b82525050565b5f60208201905060b55f8301846097565b9291505056fea26469706673582212205add5eded0f9a21d18ef512bf3766d3cecc25911d3414461e5ad0d8b6d49fa1d64736f6c634300081c0033",
			"opcodes": "PUSH1 0xF1 PUSH2 0x4C PUSH1 0xB DUP3 DUP3 DUP3 CODECOPY DUP1 MLOAD PUSH0 BYTE PUSH1 0x73 EQ PUSH1 0x40 JUMPI PUSH32 0x4E487B7100000000000000000000000000000000000000000000000000000000 PUSH0 MSTORE PUSH0 PUSH1 0x4 MSTORE PUSH1 0x24 PUSH0 REVERT JUMPDEST ADDRESS PUSH0 MSTORE PUSH1 0x73 DUP2 MSTORE8 DUP3 DUP2 RETURN INVALID PUSH20 0x0 ADDRESS EQ PUSH1 0x80 PUSH1 0x40 MSTORE PUSH1 0x4 CALLDATASIZE LT PUSH1 0x3C JUMPI PUSH0 CALLDATALOAD PUSH1 0xE0 SHR DUP1 PUSH4 0x1CCFF3F5 EQ PUSH1 0x40 JUMPI DUP1 PUSH4 0xB1C0C80A EQ PUSH1 0x5A JUMPI JUMPDEST PUSH0 PUSH0 REVERT JUMPDEST PUSH1 0x46 PUSH1 0x74 JUMP JUMPDEST PUSH1 0x40 MLOAD PUSH1 0x51 SWAP2 SWAP1 PUSH1 0xA4 JUMP JUMPDEST PUSH1 0x40 MLOAD DUP1 SWAP2 SUB SWAP1 RETURN JUMPDEST PUSH1 0x60 PUSH1 0x7A JUMP JUMPDEST PUSH1 0x40 MLOAD PUSH1 0x6B SWAP2 SWAP1 PUSH1 0xA4 JUMP JUMPDEST PUSH1 0x40 MLOAD DUP1 SWAP2 SUB SWAP1 RETURN JUMPDEST PUSH2 0x2710 DUP2 JUMP JUMPDEST PUSH2 0x1F4 DUP2 JUMP JUMPDEST PUSH0 PUSH12 0xFFFFFFFFFFFFFFFFFFFFFFFF DUP3 AND SWAP1 POP SWAP2 SWAP1 POP JUMP JUMPDEST PUSH1 0x9E DUP2 PUSH1 0x80 JUMP JUMPDEST DUP3 MSTORE POP POP JUMP JUMPDEST PUSH0 PUSH1 0x20 DUP3 ADD SWAP1 POP PUSH1 0xB5 PUSH0 DUP4 ADD DUP5 PUSH1 0x97 JUMP JUMPDEST SWAP3 SWAP2 POP POP JUMP INVALID LOG2 PUSH5 0x6970667358 0x22 SLT KECCAK256 GAS 0xDD MCOPY 0xDE 0xD0 0xF9 LOG2 SAR XOR 0xEF MLOAD 0x2B RETURN PUSH23 0x6D3CECC25911D3414461E5AD0D8B6D49FA1D64736F6C63 NUMBER STOP ADDMOD SHR STOP CALLER "
		},
		"gasEstimates": {
			"creation": {
				"codeDepositCost": "48200",
				"executionCost": "122",
				"totalCost": "48322"
			},
			"external": {
				"DEFAULT_ROYALTY_BASIS_POINTS()": "315",
				"MAX_ROYALTY_BASIS_POINTS()": "293"
			},
			"internal": {
				"getRoyalty(address,uint256,uint256,address)": "infinite"
			}
		},
		"methodIdentifiers": {
			"DEFAULT_ROYALTY_BASIS_POINTS()": "b1c0c80a",
			"MAX_ROYALTY_BASIS_POINTS()": "1ccff3f5"
		}
	},
	"abi": [
		{
			"inputs": [],
			"name": "DEFAULT_ROYALTY_BASIS_POINTS",
			"outputs": [
				{
					"internalType": "uint96",
					"name": "",
					"type": "uint96"
				}
			],
			"stateMutability": "view",
			"type": "function"
		},
		{
			"inputs": [],
			"name": "MAX_ROYALTY_BASIS_POINTS",
			"outputs": [
				{
					"internalType": "uint96",
					"name": "",
					"type": "uint96"
				}
			],
			"stateMutability": "view",
			"type": "function"
		}
	]
}